{
  "contractName": "Hello",
  "abi": [
    {
      "inputs": [
        {
          "internalType": "string",
          "name": "_word",
          "type": "string"
        }
      ],
      "name": "setter",
      "outputs": [],
      "stateMutability": "nonpayable",
      "type": "function"
    },
    {
      "inputs": [],
      "name": "getter",
      "outputs": [
        {
          "internalType": "string",
          "name": "",
          "type": "string"
        }
      ],
      "stateMutability": "view",
      "type": "function",
      "constant": true
    },
    {
      "inputs": [],
      "name": "deposit",
      "outputs": [],
      "stateMutability": "payable",
      "type": "function",
      "payable": true
    },
    {
      "inputs": [
        {
          "internalType": "uint256",
          "name": "_amount",
          "type": "uint256"
        }
      ],
      "name": "withdraw",
      "outputs": [],
      "stateMutability": "nonpayable",
      "type": "function"
    },
    {
      "inputs": [],
      "name": "contractBalance",
      "outputs": [
        {
          "internalType": "uint256",
          "name": "",
          "type": "uint256"
        }
      ],
      "stateMutability": "view",
      "type": "function",
      "constant": true
    },
    {
      "inputs": [],
      "name": "BalanceAtAddress",
      "outputs": [
        {
          "internalType": "uint256",
          "name": "",
          "type": "uint256"
        }
      ],
      "stateMutability": "view",
      "type": "function",
      "constant": true
    }
  ],
  "bytecode": "0x60806040526040518060400160405280600581526020017f48656c6c6f0000000000000000000000000000000000000000000000000000008152506000908051906020019061004f929190610062565b5034801561005c57600080fd5b50610166565b82805461006e90610105565b90600052602060002090601f01602090048101928261009057600085556100d7565b82601f106100a957805160ff19168380011785556100d7565b828001600101855582156100d7579182015b828111156100d65782518255916020019190600101906100bb565b5b5090506100e491906100e8565b5090565b5b808211156101015760008160009055506001016100e9565b5090565b6000600282049050600182168061011d57607f821691505b6020821081141561013157610130610137565b5b50919050565b7f4e487b7100000000000000000000000000000000000000000000000000000000600052602260045260246000fd5b610a93806101756000396000f3fe6080604052600436106100555760003560e01c80632e1a7d4d1461005a5780634630954114610083578063846228a3146100ae5780638b7afe2e146100d7578063993a04b714610102578063d0e30db01461012d575b600080fd5b34801561006657600080fd5b50610081600480360381019061007c91906105f3565b610137565b005b34801561008f57600080fd5b506100986102f7565b6040516100a59190610748565b60405180910390f35b3480156100ba57600080fd5b506100d560048036038101906100d091906105aa565b61033e565b005b3480156100e357600080fd5b506100ec610358565b6040516100f99190610748565b60405180910390f35b34801561010e57600080fd5b50610117610360565b60405161012491906106e6565b60405180910390f35b6101356103f2565b005b600160003373ffffffffffffffffffffffffffffffffffffffff1673ffffffffffffffffffffffffffffffffffffffff168152602001908152602001600020548111156101b9576040517f08c379a00000000000000000000000000000000000000000000000000000000081526004016101b090610728565b60405180910390fd5b80600160003373ffffffffffffffffffffffffffffffffffffffff1673ffffffffffffffffffffffffffffffffffffffff168152602001908152602001600020546102049190610836565b600160003373ffffffffffffffffffffffffffffffffffffffff1673ffffffffffffffffffffffffffffffffffffffff1681526020019081526020016000208190555060003373ffffffffffffffffffffffffffffffffffffffff168260405161026d906106d1565b60006040518083038185875af1925050503d80600081146102aa576040519150601f19603f3d011682016040523d82523d6000602084013e6102af565b606091505b50509050806102f3576040517f08c379a00000000000000000000000000000000000000000000000000000000081526004016102ea90610708565b60405180910390fd5b5050565b6000600160003373ffffffffffffffffffffffffffffffffffffffff1673ffffffffffffffffffffffffffffffffffffffff16815260200190815260200160002054905090565b8060009080519060200190610354929190610482565b5050565b600047905090565b60606000805461036f906108b6565b80601f016020809104026020016040519081016040528092919081815260200182805461039b906108b6565b80156103e85780601f106103bd576101008083540402835291602001916103e8565b820191906000526020600020905b8154815290600101906020018083116103cb57829003601f168201915b5050505050905090565b34600160003373ffffffffffffffffffffffffffffffffffffffff1673ffffffffffffffffffffffffffffffffffffffff1681526020019081526020016000205461043d91906107e0565b600160003373ffffffffffffffffffffffffffffffffffffffff1673ffffffffffffffffffffffffffffffffffffffff16815260200190815260200160002081905550565b82805461048e906108b6565b90600052602060002090601f0160209004810192826104b057600085556104f7565b82601f106104c957805160ff19168380011785556104f7565b828001600101855582156104f7579182015b828111156104f65782518255916020019190600101906104db565b5b5090506105049190610508565b5090565b5b80821115610521576000816000905550600101610509565b5090565b600061053861053384610788565b610763565b905082815260208101848484011115610554576105536109ab565b5b61055f848285610874565b509392505050565b600082601f83011261057c5761057b6109a6565b5b813561058c848260208601610525565b91505092915050565b6000813590506105a481610a46565b92915050565b6000602082840312156105c0576105bf6109b5565b5b600082013567ffffffffffffffff8111156105de576105dd6109b0565b5b6105ea84828501610567565b91505092915050565b600060208284031215610609576106086109b5565b5b600061061784828501610595565b91505092915050565b600061062b826107b9565b61063581856107cf565b9350610645818560208601610883565b61064e816109ba565b840191505092915050565b60006106666012836107cf565b9150610671826109cb565b602082019050919050565b60006106896000836107c4565b9150610694826109f4565b600082019050919050565b60006106ac6023836107cf565b91506106b7826109f7565b604082019050919050565b6106cb8161086a565b82525050565b60006106dc8261067c565b9150819050919050565b600060208201905081810360008301526107008184610620565b905092915050565b6000602082019050818103600083015261072181610659565b9050919050565b600060208201905081810360008301526107418161069f565b9050919050565b600060208201905061075d60008301846106c2565b92915050565b600061076d61077e565b905061077982826108e8565b919050565b6000604051905090565b600067ffffffffffffffff8211156107a3576107a2610977565b5b6107ac826109ba565b9050602081019050919050565b600081519050919050565b600081905092915050565b600082825260208201905092915050565b60006107eb8261086a565b91506107f68361086a565b9250827fffffffffffffffffffffffffffffffffffffffffffffffffffffffffffffffff0382111561082b5761082a610919565b5b828201905092915050565b60006108418261086a565b915061084c8361086a565b92508282101561085f5761085e610919565b5b828203905092915050565b6000819050919050565b82818337600083830152505050565b60005b838110156108a1578082015181840152602081019050610886565b838111156108b0576000848401525b50505050565b600060028204905060018216806108ce57607f821691505b602082108114156108e2576108e1610948565b5b50919050565b6108f1826109ba565b810181811067ffffffffffffffff821117156109105761090f610977565b5b80604052505050565b7f4e487b7100000000000000000000000000000000000000000000000000000000600052601160045260246000fd5b7f4e487b7100000000000000000000000000000000000000000000000000000000600052602260045260246000fd5b7f4e487b7100000000000000000000000000000000000000000000000000000000600052604160045260246000fd5b600080fd5b600080fd5b600080fd5b600080fd5b6000601f19601f8301169050919050565b7f756e61626c6520746f2077697468647261770000000000000000000000000000600082015250565b50565b7f63616e6e6f74207769746864726177206d6f7265207468616e206465706f736960008201527f7465640000000000000000000000000000000000000000000000000000000000602082015250565b610a4f8161086a565b8114610a5a57600080fd5b5056fea26469706673582212205de1407a14c85b804194d80a0f2ca786df878fc9b0d3d36a00b364d8715f3c5064736f6c63430008070033",
  "immutableReferences": {},
  "source": "// SPDX-License-Identifier: GPL-3.0\n\npragma solidity ^0.8.3;\n\ncontract Hello {\n    string private word = \"Hello\";\n    mapping(address => uint256) private balances;\n\n    function setter(string memory _word) public {\n        word = _word;\n    }\n\n    function getter() public view returns (string memory) {\n        return word;\n    }\n\n    function deposit() public payable {\n        balances[msg.sender] = balances[msg.sender] + msg.value;\n    }\n\n    function withdraw(uint256 _amount) public {\n        require(\n            _amount <= balances[msg.sender],\n            \"cannot withdraw more than deposited\"\n        );\n        balances[msg.sender] = balances[msg.sender] - _amount;\n        (bool success, ) = payable(msg.sender).call{value: _amount}(\"\");\n        require(success, \"unable to withdraw\");\n    }\n\n    function contractBalance() public view returns (uint256) {\n        return address(this).balance;\n    }\n\n    function BalanceAtAddress() public view returns (uint256) {\n        return balances[msg.sender];\n    }\n}\n",
  "sourcePath": "/home/ni8mare/Desktop/ethProjects/HelloWorld/contracts/Hello.sol",
  "compiler": {
    "name": "solc",
    "version": "0.8.7+commit.e28d00a7.Emscripten.clang"
  },
  "schemaVersion": "3.4.3",
  "updatedAt": "2021-08-26T22:12:22.340Z",
  "networkType": "ethereum",
  "devdoc": {
    "kind": "dev",
    "methods": {},
    "version": 1
  },
  "userdoc": {
    "kind": "user",
    "methods": {},
    "version": 1
  }
}